{
  "_format": "hh-sol-artifact-1",
  "contractName": "ETHDaddy",
  "sourceName": "contracts/ETHDaddy.sol",
  "abi": [
    {
      "anonymous": false,
      "inputs": [
        {
          "indexed": true,
          "internalType": "address",
          "name": "owner",
          "type": "address"
        },
        {
          "indexed": true,
          "internalType": "address",
          "name": "approved",
          "type": "address"
        },
        {
          "indexed": true,
          "internalType": "uint256",
          "name": "tokenId",
          "type": "uint256"
        }
      ],
      "name": "Approval",
      "type": "event"
    },
    {
      "anonymous": false,
      "inputs": [
        {
          "indexed": true,
          "internalType": "address",
          "name": "owner",
          "type": "address"
        },
        {
          "indexed": true,
          "internalType": "address",
          "name": "operator",
          "type": "address"
        },
        {
          "indexed": false,
          "internalType": "bool",
          "name": "approved",
          "type": "bool"
        }
      ],
      "name": "ApprovalForAll",
      "type": "event"
    },
    {
      "anonymous": false,
      "inputs": [
        {
          "indexed": true,
          "internalType": "address",
          "name": "from",
          "type": "address"
        },
        {
          "indexed": true,
          "internalType": "address",
          "name": "to",
          "type": "address"
        },
        {
          "indexed": true,
          "internalType": "uint256",
          "name": "tokenId",
          "type": "uint256"
        }
      ],
      "name": "Transfer",
      "type": "event"
    },
    {
      "inputs": [
        {
          "internalType": "address",
          "name": "to",
          "type": "address"
        },
        {
          "internalType": "uint256",
          "name": "tokenId",
          "type": "uint256"
        }
      ],
      "name": "approve",
      "outputs": [],
      "stateMutability": "nonpayable",
      "type": "function"
    },
    {
      "inputs": [
        {
          "internalType": "string",
          "name": "_domain",
          "type": "string"
        },
        {
          "internalType": "uint256",
          "name": "_cost",
          "type": "uint256"
        }
      ],
      "name": "list",
      "outputs": [],
      "stateMutability": "nonpayable",
      "type": "function"
    },
    {
      "inputs": [
        {
          "internalType": "uint256",
          "name": "tokenID",
          "type": "uint256"
        }
      ],
      "name": "mint",
      "outputs": [],
      "stateMutability": "payable",
      "type": "function"
    },
    {
      "inputs": [
        {
          "internalType": "address",
          "name": "from",
          "type": "address"
        },
        {
          "internalType": "address",
          "name": "to",
          "type": "address"
        },
        {
          "internalType": "uint256",
          "name": "tokenId",
          "type": "uint256"
        }
      ],
      "name": "safeTransferFrom",
      "outputs": [],
      "stateMutability": "nonpayable",
      "type": "function"
    },
    {
      "inputs": [
        {
          "internalType": "address",
          "name": "from",
          "type": "address"
        },
        {
          "internalType": "address",
          "name": "to",
          "type": "address"
        },
        {
          "internalType": "uint256",
          "name": "tokenId",
          "type": "uint256"
        },
        {
          "internalType": "bytes",
          "name": "data",
          "type": "bytes"
        }
      ],
      "name": "safeTransferFrom",
      "outputs": [],
      "stateMutability": "nonpayable",
      "type": "function"
    },
    {
      "inputs": [
        {
          "internalType": "address",
          "name": "operator",
          "type": "address"
        },
        {
          "internalType": "bool",
          "name": "approved",
          "type": "bool"
        }
      ],
      "name": "setApprovalForAll",
      "outputs": [],
      "stateMutability": "nonpayable",
      "type": "function"
    },
    {
      "inputs": [
        {
          "internalType": "address",
          "name": "from",
          "type": "address"
        },
        {
          "internalType": "address",
          "name": "to",
          "type": "address"
        },
        {
          "internalType": "uint256",
          "name": "tokenId",
          "type": "uint256"
        }
      ],
      "name": "transferFrom",
      "outputs": [],
      "stateMutability": "nonpayable",
      "type": "function"
    },
    {
      "inputs": [],
      "name": "withdraw",
      "outputs": [],
      "stateMutability": "payable",
      "type": "function"
    },
    {
      "inputs": [
        {
          "internalType": "string",
          "name": "_name",
          "type": "string"
        },
        {
          "internalType": "string",
          "name": "_symbol",
          "type": "string"
        },
        {
          "internalType": "uint256",
          "name": "_maxSupply",
          "type": "uint256"
        }
      ],
      "stateMutability": "nonpayable",
      "type": "constructor"
    },
    {
      "inputs": [
        {
          "internalType": "address",
          "name": "owner",
          "type": "address"
        }
      ],
      "name": "balanceOf",
      "outputs": [
        {
          "internalType": "uint256",
          "name": "",
          "type": "uint256"
        }
      ],
      "stateMutability": "view",
      "type": "function"
    },
    {
      "inputs": [
        {
          "internalType": "uint256",
          "name": "tokenId",
          "type": "uint256"
        }
      ],
      "name": "getApproved",
      "outputs": [
        {
          "internalType": "address",
          "name": "",
          "type": "address"
        }
      ],
      "stateMutability": "view",
      "type": "function"
    },
    {
      "inputs": [],
      "name": "getDomainByOwner",
      "outputs": [
        {
          "components": [
            {
              "internalType": "string",
              "name": "domain",
              "type": "string"
            },
            {
              "internalType": "uint256",
              "name": "cost",
              "type": "uint256"
            },
            {
              "internalType": "address",
              "name": "owner",
              "type": "address"
            },
            {
              "internalType": "bool",
              "name": "isOwned",
              "type": "bool"
            }
          ],
          "internalType": "struct ETHDaddy.Domain[]",
          "name": "",
          "type": "tuple[]"
        }
      ],
      "stateMutability": "view",
      "type": "function"
    },
    {
      "inputs": [
        {
          "internalType": "uint256",
          "name": "tokenID",
          "type": "uint256"
        }
      ],
      "name": "getDomainByToken",
      "outputs": [
        {
          "components": [
            {
              "internalType": "string",
              "name": "domain",
              "type": "string"
            },
            {
              "internalType": "uint256",
              "name": "cost",
              "type": "uint256"
            },
            {
              "internalType": "address",
              "name": "owner",
              "type": "address"
            },
            {
              "internalType": "bool",
              "name": "isOwned",
              "type": "bool"
            }
          ],
          "internalType": "struct ETHDaddy.Domain",
          "name": "",
          "type": "tuple"
        }
      ],
      "stateMutability": "view",
      "type": "function"
    },
    {
      "inputs": [
        {
          "internalType": "address",
          "name": "owner",
          "type": "address"
        },
        {
          "internalType": "address",
          "name": "operator",
          "type": "address"
        }
      ],
      "name": "isApprovedForAll",
      "outputs": [
        {
          "internalType": "bool",
          "name": "",
          "type": "bool"
        }
      ],
      "stateMutability": "view",
      "type": "function"
    },
    {
      "inputs": [],
      "name": "name",
      "outputs": [
        {
          "internalType": "string",
          "name": "",
          "type": "string"
        }
      ],
      "stateMutability": "view",
      "type": "function"
    },
    {
      "inputs": [],
      "name": "owner",
      "outputs": [
        {
          "internalType": "address",
          "name": "",
          "type": "address"
        }
      ],
      "stateMutability": "view",
      "type": "function"
    },
    {
      "inputs": [
        {
          "internalType": "uint256",
          "name": "tokenId",
          "type": "uint256"
        }
      ],
      "name": "ownerOf",
      "outputs": [
        {
          "internalType": "address",
          "name": "",
          "type": "address"
        }
      ],
      "stateMutability": "view",
      "type": "function"
    },
    {
      "inputs": [
        {
          "internalType": "bytes4",
          "name": "interfaceId",
          "type": "bytes4"
        }
      ],
      "name": "supportsInterface",
      "outputs": [
        {
          "internalType": "bool",
          "name": "",
          "type": "bool"
        }
      ],
      "stateMutability": "view",
      "type": "function"
    },
    {
      "inputs": [],
      "name": "symbol",
      "outputs": [
        {
          "internalType": "string",
          "name": "",
          "type": "string"
        }
      ],
      "stateMutability": "view",
      "type": "function"
    },
    {
      "inputs": [
        {
          "internalType": "uint256",
          "name": "tokenId",
          "type": "uint256"
        }
      ],
      "name": "tokenURI",
      "outputs": [
        {
          "internalType": "string",
          "name": "",
          "type": "string"
        }
      ],
      "stateMutability": "view",
      "type": "function"
    }
  ],
  "bytecode": "0x60806040523480156200001157600080fd5b5060405162003b3f38038062003b3f833981810160405281019062000037919062000346565b8282816000908051906020019062000051929190620000be565b5080600190805190602001906200006a929190620000be565b50505033600860006101000a81548173ffffffffffffffffffffffffffffffffffffffff021916908373ffffffffffffffffffffffffffffffffffffffff16021790555080600a8190555050505062000445565b828054620000cc906200040f565b90600052602060002090601f016020900481019282620000f057600085556200013c565b82601f106200010b57805160ff19168380011785556200013c565b828001600101855582156200013c579182015b828111156200013b5782518255916020019190600101906200011e565b5b5090506200014b91906200014f565b5090565b5b808211156200016a57600081600090555060010162000150565b5090565b6000604051905090565b600080fd5b600080fd5b600080fd5b600080fd5b6000601f19601f8301169050919050565b7f4e487b7100000000000000000000000000000000000000000000000000000000600052604160045260246000fd5b620001d7826200018c565b810181811067ffffffffffffffff82111715620001f957620001f86200019d565b5b80604052505050565b60006200020e6200016e565b90506200021c8282620001cc565b919050565b600067ffffffffffffffff8211156200023f576200023e6200019d565b5b6200024a826200018c565b9050602081019050919050565b60005b83811015620002775780820151818401526020810190506200025a565b8381111562000287576000848401525b50505050565b6000620002a46200029e8462000221565b62000202565b905082815260208101848484011115620002c357620002c262000187565b5b620002d084828562000257565b509392505050565b600082601f830112620002f057620002ef62000182565b5b8151620003028482602086016200028d565b91505092915050565b6000819050919050565b62000320816200030b565b81146200032c57600080fd5b50565b600081519050620003408162000315565b92915050565b60008060006060848603121562000362576200036162000178565b5b600084015167ffffffffffffffff8111156200038357620003826200017d565b5b6200039186828701620002d8565b935050602084015167ffffffffffffffff811115620003b557620003b46200017d565b5b620003c386828701620002d8565b9250506040620003d6868287016200032f565b9150509250925092565b7f4e487b7100000000000000000000000000000000000000000000000000000000600052602260045260246000fd5b600060028204905060018216806200042857607f821691505b602082108114156200043f576200043e620003e0565b5b50919050565b6136ea80620004556000396000f3fe6080604052600436106101145760003560e01c80636352211e116100a0578063a22cb46511610064578063a22cb46514610383578063a3c1806c146103ac578063b88d4fde146103e9578063c87b56dd14610412578063e985e9c51461044f57610114565b80636352211e1461029757806370a08231146102d45780638da5cb5b1461031157806395d89b411461033c578063a0712d681461036757610114565b806323b872dd116100e757806323b872dd146101e75780633ac11e9f146102105780633ccfd60b1461023b57806342842e0e146102455780634a878dfa1461026e57610114565b806301ffc9a71461011957806306fdde0314610156578063081812fc14610181578063095ea7b3146101be575b600080fd5b34801561012557600080fd5b50610140600480360381019061013b9190612338565b61048c565b60405161014d9190612380565b60405180910390f35b34801561016257600080fd5b5061016b61056e565b6040516101789190612434565b60405180910390f35b34801561018d57600080fd5b506101a860048036038101906101a3919061248c565b610600565b6040516101b591906124fa565b60405180910390f35b3480156101ca57600080fd5b506101e560048036038101906101e09190612541565b610646565b005b3480156101f357600080fd5b5061020e60048036038101906102099190612581565b61075e565b005b34801561021c57600080fd5b506102256107be565b6040516102329190612770565b60405180910390f35b610243610967565b005b34801561025157600080fd5b5061026c60048036038101906102679190612581565b610a92565b005b34801561027a57600080fd5b50610295600480360381019061029091906128c7565b610ab2565b005b3480156102a357600080fd5b506102be60048036038101906102b9919061248c565b610c3f565b6040516102cb91906124fa565b60405180910390f35b3480156102e057600080fd5b506102fb60048036038101906102f69190612923565b610cc6565b604051610308919061295f565b60405180910390f35b34801561031d57600080fd5b50610326610d7e565b60405161033391906124fa565b60405180910390f35b34801561034857600080fd5b50610351610da4565b60405161035e9190612434565b60405180910390f35b610381600480360381019061037c919061248c565b610e36565b005b34801561038f57600080fd5b506103aa60048036038101906103a591906129a6565b611030565b005b3480156103b857600080fd5b506103d360048036038101906103ce919061248c565b611046565b6040516103e09190612a49565b60405180910390f35b3480156103f557600080fd5b50610410600480360381019061040b9190612b0c565b611180565b005b34801561041e57600080fd5b506104396004803603810190610434919061248c565b6111e2565b6040516104469190612434565b60405180910390f35b34801561045b57600080fd5b5061047660048036038101906104719190612b8f565b61124a565b6040516104839190612380565b60405180910390f35b60007f80ac58cd000000000000000000000000000000000000000000000000000000007bffffffffffffffffffffffffffffffffffffffffffffffffffffffff1916827bffffffffffffffffffffffffffffffffffffffffffffffffffffffff1916148061055757507f5b5e139f000000000000000000000000000000000000000000000000000000007bffffffffffffffffffffffffffffffffffffffffffffffffffffffff1916827bffffffffffffffffffffffffffffffffffffffffffffffffffffffff1916145b806105675750610566826112de565b5b9050919050565b60606000805461057d90612bfe565b80601f01602080910402602001604051908101604052809291908181526020018280546105a990612bfe565b80156105f65780601f106105cb576101008083540402835291602001916105f6565b820191906000526020600020905b8154815290600101906020018083116105d957829003601f168201915b5050505050905090565b600061060b82611348565b6004600083815260200190815260200160002060009054906101000a900473ffffffffffffffffffffffffffffffffffffffff169050919050565b600061065182610c3f565b90508073ffffffffffffffffffffffffffffffffffffffff168373ffffffffffffffffffffffffffffffffffffffff1614156106c2576040517f08c379a00000000000000000000000000000000000000000000000000000000081526004016106b990612ca2565b60405180910390fd5b8073ffffffffffffffffffffffffffffffffffffffff166106e1611393565b73ffffffffffffffffffffffffffffffffffffffff161480610710575061070f8161070a611393565b61124a565b5b61074f576040517f08c379a000000000000000000000000000000000000000000000000000000000815260040161074690612d34565b60405180910390fd5b610759838361139b565b505050565b61076f610769611393565b82611454565b6107ae576040517f08c379a00000000000000000000000000000000000000000000000000000000081526004016107a590612dc6565b60405180910390fd5b6107b98383836114e9565b505050565b6060600760003373ffffffffffffffffffffffffffffffffffffffff1673ffffffffffffffffffffffffffffffffffffffff168152602001908152602001600020805480602002602001604051908101604052809291908181526020016000905b8282101561095e578382906000526020600020906003020160405180608001604052908160008201805461085290612bfe565b80601f016020809104026020016040519081016040528092919081815260200182805461087e90612bfe565b80156108cb5780601f106108a0576101008083540402835291602001916108cb565b820191906000526020600020905b8154815290600101906020018083116108ae57829003601f168201915b50505050508152602001600182015481526020016002820160009054906101000a900473ffffffffffffffffffffffffffffffffffffffff1673ffffffffffffffffffffffffffffffffffffffff1673ffffffffffffffffffffffffffffffffffffffff1681526020016002820160149054906101000a900460ff1615151515815250508152602001906001019061081f565b50505050905090565b600860009054906101000a900473ffffffffffffffffffffffffffffffffffffffff1673ffffffffffffffffffffffffffffffffffffffff163373ffffffffffffffffffffffffffffffffffffffff16146109f7576040517f08c379a00000000000000000000000000000000000000000000000000000000081526004016109ee90612e32565b60405180910390fd5b6000600860009054906101000a900473ffffffffffffffffffffffffffffffffffffffff1673ffffffffffffffffffffffffffffffffffffffff1647604051610a3f90612e83565b60006040518083038185875af1925050503d8060008114610a7c576040519150601f19603f3d011682016040523d82523d6000602084013e610a81565b606091505b5050905080610a8f57600080fd5b50565b610aad83838360405180602001604052806000815250611180565b505050565b600860009054906101000a900473ffffffffffffffffffffffffffffffffffffffff1673ffffffffffffffffffffffffffffffffffffffff163373ffffffffffffffffffffffffffffffffffffffff1614610b42576040517f08c379a0000000000000000000000000000000000000000000000000000000008152600401610b3990612e32565b60405180910390fd5b6040518060800160405280838152602001828152602001600073ffffffffffffffffffffffffffffffffffffffff168152602001600015158152506006600060095481526020019081526020016000206000820151816000019080519060200190610bae9291906121e9565b506020820151816001015560408201518160020160006101000a81548173ffffffffffffffffffffffffffffffffffffffff021916908373ffffffffffffffffffffffffffffffffffffffff16021790555060608201518160020160146101000a81548160ff021916908315150217905550905050600b6000815480929190610c3690612ec7565b91905055505050565b600080610c4b836117e3565b9050600073ffffffffffffffffffffffffffffffffffffffff168173ffffffffffffffffffffffffffffffffffffffff161415610cbd576040517f08c379a0000000000000000000000000000000000000000000000000000000008152600401610cb490612f5c565b60405180910390fd5b80915050919050565b60008073ffffffffffffffffffffffffffffffffffffffff168273ffffffffffffffffffffffffffffffffffffffff161415610d37576040517f08c379a0000000000000000000000000000000000000000000000000000000008152600401610d2e90612fee565b60405180910390fd5b600360008373ffffffffffffffffffffffffffffffffffffffff1673ffffffffffffffffffffffffffffffffffffffff168152602001908152602001600020549050919050565b600860009054906101000a900473ffffffffffffffffffffffffffffffffffffffff1681565b606060018054610db390612bfe565b80601f0160208091040260200160405190810160405280929190818152602001828054610ddf90612bfe565b8015610e2c5780601f10610e0157610100808354040283529160200191610e2c565b820191906000526020600020905b815481529060010190602001808311610e0f57829003601f168201915b5050505050905090565b600860009054906101000a900473ffffffffffffffffffffffffffffffffffffffff1673ffffffffffffffffffffffffffffffffffffffff163373ffffffffffffffffffffffffffffffffffffffff161415610ec7576040517f08c379a0000000000000000000000000000000000000000000000000000000008152600401610ebe9061305a565b60405180910390fd5b6006600082815260200190815260200160002060010154341015610f20576040517f08c379a0000000000000000000000000000000000000000000000000000000008152600401610f17906130c6565b60405180910390fd5b600015156006600083815260200190815260200160002060020160149054906101000a900460ff16151514610f8a576040517f08c379a0000000000000000000000000000000000000000000000000000000008152600401610f8190613132565b60405180910390fd5b600a546001600954610f9c9190613152565b10610fdc576040517f08c379a0000000000000000000000000000000000000000000000000000000008152600401610fd3906131f4565b60405180910390fd5b60016006600083815260200190815260200160002060020160146101000a81548160ff0219169083151502179055506009600081548092919061101e90612ec7565b919050555061102d3382611820565b50565b61104261103b611393565b838361183e565b5050565b61104e61226f565b6006600083815260200190815260200160002060405180608001604052908160008201805461107c90612bfe565b80601f01602080910402602001604051908101604052809291908181526020018280546110a890612bfe565b80156110f55780601f106110ca576101008083540402835291602001916110f5565b820191906000526020600020905b8154815290600101906020018083116110d857829003601f168201915b50505050508152602001600182015481526020016002820160009054906101000a900473ffffffffffffffffffffffffffffffffffffffff1673ffffffffffffffffffffffffffffffffffffffff1673ffffffffffffffffffffffffffffffffffffffff1681526020016002820160149054906101000a900460ff1615151515815250509050919050565b61119161118b611393565b83611454565b6111d0576040517f08c379a00000000000000000000000000000000000000000000000000000000081526004016111c790612dc6565b60405180910390fd5b6111dc848484846119ab565b50505050565b60606111ed82611348565b60006111f7611a07565b905060008151116112175760405180602001604052806000815250611242565b8061122184611a1e565b604051602001611232929190613250565b6040516020818303038152906040525b915050919050565b6000600560008473ffffffffffffffffffffffffffffffffffffffff1673ffffffffffffffffffffffffffffffffffffffff16815260200190815260200160002060008373ffffffffffffffffffffffffffffffffffffffff1673ffffffffffffffffffffffffffffffffffffffff16815260200190815260200160002060009054906101000a900460ff16905092915050565b60007f01ffc9a7000000000000000000000000000000000000000000000000000000007bffffffffffffffffffffffffffffffffffffffffffffffffffffffff1916827bffffffffffffffffffffffffffffffffffffffffffffffffffffffff1916149050919050565b61135181611af6565b611390576040517f08c379a000000000000000000000000000000000000000000000000000000000815260040161138790612f5c565b60405180910390fd5b50565b600033905090565b816004600083815260200190815260200160002060006101000a81548173ffffffffffffffffffffffffffffffffffffffff021916908373ffffffffffffffffffffffffffffffffffffffff160217905550808273ffffffffffffffffffffffffffffffffffffffff1661140e83610c3f565b73ffffffffffffffffffffffffffffffffffffffff167f8c5be1e5ebec7d5bd14f71427d1e84f3dd0314c0f7b2291e5b200ac8c7c3b92560405160405180910390a45050565b60008061146083610c3f565b90508073ffffffffffffffffffffffffffffffffffffffff168473ffffffffffffffffffffffffffffffffffffffff1614806114a257506114a1818561124a565b5b806114e057508373ffffffffffffffffffffffffffffffffffffffff166114c884610600565b73ffffffffffffffffffffffffffffffffffffffff16145b91505092915050565b8273ffffffffffffffffffffffffffffffffffffffff1661150982610c3f565b73ffffffffffffffffffffffffffffffffffffffff161461155f576040517f08c379a0000000000000000000000000000000000000000000000000000000008152600401611556906132e6565b60405180910390fd5b600073ffffffffffffffffffffffffffffffffffffffff168273ffffffffffffffffffffffffffffffffffffffff1614156115cf576040517f08c379a00000000000000000000000000000000000000000000000000000000081526004016115c690613378565b60405180910390fd5b6115dc8383836001611b37565b8273ffffffffffffffffffffffffffffffffffffffff166115fc82610c3f565b73ffffffffffffffffffffffffffffffffffffffff1614611652576040517f08c379a0000000000000000000000000000000000000000000000000000000008152600401611649906132e6565b60405180910390fd5b6004600082815260200190815260200160002060006101000a81549073ffffffffffffffffffffffffffffffffffffffff02191690556001600360008573ffffffffffffffffffffffffffffffffffffffff1673ffffffffffffffffffffffffffffffffffffffff168152602001908152602001600020600082825403925050819055506001600360008473ffffffffffffffffffffffffffffffffffffffff1673ffffffffffffffffffffffffffffffffffffffff16815260200190815260200160002060008282540192505081905550816002600083815260200190815260200160002060006101000a81548173ffffffffffffffffffffffffffffffffffffffff021916908373ffffffffffffffffffffffffffffffffffffffff160217905550808273ffffffffffffffffffffffffffffffffffffffff168473ffffffffffffffffffffffffffffffffffffffff167fddf252ad1be2c89b69c2b068fc378daa952ba7f163c4a11628f55a4df523b3ef60405160405180910390a46117de8383836001611c5d565b505050565b60006002600083815260200190815260200160002060009054906101000a900473ffffffffffffffffffffffffffffffffffffffff169050919050565b61183a828260405180602001604052806000815250611c63565b5050565b8173ffffffffffffffffffffffffffffffffffffffff168373ffffffffffffffffffffffffffffffffffffffff1614156118ad576040517f08c379a00000000000000000000000000000000000000000000000000000000081526004016118a4906133e4565b60405180910390fd5b80600560008573ffffffffffffffffffffffffffffffffffffffff1673ffffffffffffffffffffffffffffffffffffffff16815260200190815260200160002060008473ffffffffffffffffffffffffffffffffffffffff1673ffffffffffffffffffffffffffffffffffffffff16815260200190815260200160002060006101000a81548160ff0219169083151502179055508173ffffffffffffffffffffffffffffffffffffffff168373ffffffffffffffffffffffffffffffffffffffff167f17307eab39ab6107e8899845ad3d59bd9653f200f220920489ca2b5937696c318360405161199e9190612380565b60405180910390a3505050565b6119b68484846114e9565b6119c284848484611cbe565b611a01576040517f08c379a00000000000000000000000000000000000000000000000000000000081526004016119f890613476565b60405180910390fd5b50505050565b606060405180602001604052806000815250905090565b606060006001611a2d84611e55565b01905060008167ffffffffffffffff811115611a4c57611a4b61279c565b5b6040519080825280601f01601f191660200182016040528015611a7e5781602001600182028036833780820191505090505b509050600082602001820190505b600115611aeb578080600190039150507f3031323334353637383961626364656600000000000000000000000000000000600a86061a8153600a8581611ad557611ad4613496565b5b0494506000851415611ae657611aeb565b611a8c565b819350505050919050565b60008073ffffffffffffffffffffffffffffffffffffffff16611b18836117e3565b73ffffffffffffffffffffffffffffffffffffffff1614159050919050565b6001811115611c5757600073ffffffffffffffffffffffffffffffffffffffff168473ffffffffffffffffffffffffffffffffffffffff1614611bcb5780600360008673ffffffffffffffffffffffffffffffffffffffff1673ffffffffffffffffffffffffffffffffffffffff1681526020019081526020016000206000828254611bc391906134c5565b925050819055505b600073ffffffffffffffffffffffffffffffffffffffff168373ffffffffffffffffffffffffffffffffffffffff1614611c565780600360008573ffffffffffffffffffffffffffffffffffffffff1673ffffffffffffffffffffffffffffffffffffffff1681526020019081526020016000206000828254611c4e9190613152565b925050819055505b5b50505050565b50505050565b611c6d8383611fa8565b611c7a6000848484611cbe565b611cb9576040517f08c379a0000000000000000000000000000000000000000000000000000000008152600401611cb090613476565b60405180910390fd5b505050565b6000611cdf8473ffffffffffffffffffffffffffffffffffffffff166121c6565b15611e48578373ffffffffffffffffffffffffffffffffffffffff1663150b7a02611d08611393565b8786866040518563ffffffff1660e01b8152600401611d2a949392919061354e565b602060405180830381600087803b158015611d4457600080fd5b505af1925050508015611d7557506040513d601f19601f82011682018060405250810190611d7291906135af565b60015b611df8573d8060008114611da5576040519150601f19603f3d011682016040523d82523d6000602084013e611daa565b606091505b50600081511415611df0576040517f08c379a0000000000000000000000000000000000000000000000000000000008152600401611de790613476565b60405180910390fd5b805181602001fd5b63150b7a0260e01b7bffffffffffffffffffffffffffffffffffffffffffffffffffffffff1916817bffffffffffffffffffffffffffffffffffffffffffffffffffffffff191614915050611e4d565b600190505b949350505050565b600080600090507a184f03e93ff9f4daa797ed6e38ed64bf6a1f0100000000000000008310611eb3577a184f03e93ff9f4daa797ed6e38ed64bf6a1f0100000000000000008381611ea957611ea8613496565b5b0492506040810190505b6d04ee2d6d415b85acef81000000008310611ef0576d04ee2d6d415b85acef81000000008381611ee657611ee5613496565b5b0492506020810190505b662386f26fc100008310611f1f57662386f26fc100008381611f1557611f14613496565b5b0492506010810190505b6305f5e1008310611f48576305f5e1008381611f3e57611f3d613496565b5b0492506008810190505b6127108310611f6d576127108381611f6357611f62613496565b5b0492506004810190505b60648310611f905760648381611f8657611f85613496565b5b0492506002810190505b600a8310611f9f576001810190505b80915050919050565b600073ffffffffffffffffffffffffffffffffffffffff168273ffffffffffffffffffffffffffffffffffffffff161415612018576040517f08c379a000000000000000000000000000000000000000000000000000000000815260040161200f90613628565b60405180910390fd5b61202181611af6565b15612061576040517f08c379a000000000000000000000000000000000000000000000000000000000815260040161205890613694565b60405180910390fd5b61206f600083836001611b37565b61207881611af6565b156120b8576040517f08c379a00000000000000000000000000000000000000000000000000000000081526004016120af90613694565b60405180910390fd5b6001600360008473ffffffffffffffffffffffffffffffffffffffff1673ffffffffffffffffffffffffffffffffffffffff16815260200190815260200160002060008282540192505081905550816002600083815260200190815260200160002060006101000a81548173ffffffffffffffffffffffffffffffffffffffff021916908373ffffffffffffffffffffffffffffffffffffffff160217905550808273ffffffffffffffffffffffffffffffffffffffff16600073ffffffffffffffffffffffffffffffffffffffff167fddf252ad1be2c89b69c2b068fc378daa952ba7f163c4a11628f55a4df523b3ef60405160405180910390a46121c2600083836001611c5d565b5050565b6000808273ffffffffffffffffffffffffffffffffffffffff163b119050919050565b8280546121f590612bfe565b90600052602060002090601f016020900481019282612217576000855561225e565b82601f1061223057805160ff191683800117855561225e565b8280016001018555821561225e579182015b8281111561225d578251825591602001919060010190612242565b5b50905061226b91906122af565b5090565b60405180608001604052806060815260200160008152602001600073ffffffffffffffffffffffffffffffffffffffff1681526020016000151581525090565b5b808211156122c85760008160009055506001016122b0565b5090565b6000604051905090565b600080fd5b600080fd5b60007fffffffff0000000000000000000000000000000000000000000000000000000082169050919050565b612315816122e0565b811461232057600080fd5b50565b6000813590506123328161230c565b92915050565b60006020828403121561234e5761234d6122d6565b5b600061235c84828501612323565b91505092915050565b60008115159050919050565b61237a81612365565b82525050565b60006020820190506123956000830184612371565b92915050565b600081519050919050565b600082825260208201905092915050565b60005b838110156123d55780820151818401526020810190506123ba565b838111156123e4576000848401525b50505050565b6000601f19601f8301169050919050565b60006124068261239b565b61241081856123a6565b93506124208185602086016123b7565b612429816123ea565b840191505092915050565b6000602082019050818103600083015261244e81846123fb565b905092915050565b6000819050919050565b61246981612456565b811461247457600080fd5b50565b60008135905061248681612460565b92915050565b6000602082840312156124a2576124a16122d6565b5b60006124b084828501612477565b91505092915050565b600073ffffffffffffffffffffffffffffffffffffffff82169050919050565b60006124e4826124b9565b9050919050565b6124f4816124d9565b82525050565b600060208201905061250f60008301846124eb565b92915050565b61251e816124d9565b811461252957600080fd5b50565b60008135905061253b81612515565b92915050565b60008060408385031215612558576125576122d6565b5b60006125668582860161252c565b925050602061257785828601612477565b9150509250929050565b60008060006060848603121561259a576125996122d6565b5b60006125a88682870161252c565b93505060206125b98682870161252c565b92505060406125ca86828701612477565b9150509250925092565b600081519050919050565b600082825260208201905092915050565b6000819050602082019050919050565b600082825260208201905092915050565b600061261c8261239b565b6126268185612600565b93506126368185602086016123b7565b61263f816123ea565b840191505092915050565b61265381612456565b82525050565b612662816124d9565b82525050565b61267181612365565b82525050565b600060808301600083015184820360008601526126948282612611565b91505060208301516126a9602086018261264a565b5060408301516126bc6040860182612659565b5060608301516126cf6060860182612668565b508091505092915050565b60006126e68383612677565b905092915050565b6000602082019050919050565b6000612706826125d4565b61271081856125df565b935083602082028501612722856125f0565b8060005b8581101561275e578484038952815161273f85826126da565b945061274a836126ee565b925060208a01995050600181019050612726565b50829750879550505050505092915050565b6000602082019050818103600083015261278a81846126fb565b905092915050565b600080fd5b600080fd5b7f4e487b7100000000000000000000000000000000000000000000000000000000600052604160045260246000fd5b6127d4826123ea565b810181811067ffffffffffffffff821117156127f3576127f261279c565b5b80604052505050565b60006128066122cc565b905061281282826127cb565b919050565b600067ffffffffffffffff8211156128325761283161279c565b5b61283b826123ea565b9050602081019050919050565b82818337600083830152505050565b600061286a61286584612817565b6127fc565b90508281526020810184848401111561288657612885612797565b5b612891848285612848565b509392505050565b600082601f8301126128ae576128ad612792565b5b81356128be848260208601612857565b91505092915050565b600080604083850312156128de576128dd6122d6565b5b600083013567ffffffffffffffff8111156128fc576128fb6122db565b5b61290885828601612899565b925050602061291985828601612477565b9150509250929050565b600060208284031215612939576129386122d6565b5b60006129478482850161252c565b91505092915050565b61295981612456565b82525050565b60006020820190506129746000830184612950565b92915050565b61298381612365565b811461298e57600080fd5b50565b6000813590506129a08161297a565b92915050565b600080604083850312156129bd576129bc6122d6565b5b60006129cb8582860161252c565b92505060206129dc85828601612991565b9150509250929050565b60006080830160008301518482036000860152612a038282612611565b9150506020830151612a18602086018261264a565b506040830151612a2b6040860182612659565b506060830151612a3e6060860182612668565b508091505092915050565b60006020820190508181036000830152612a6381846129e6565b905092915050565b600067ffffffffffffffff821115612a8657612a8561279c565b5b612a8f826123ea565b9050602081019050919050565b6000612aaf612aaa84612a6b565b6127fc565b905082815260208101848484011115612acb57612aca612797565b5b612ad6848285612848565b509392505050565b600082601f830112612af357612af2612792565b5b8135612b03848260208601612a9c565b91505092915050565b60008060008060808587031215612b2657612b256122d6565b5b6000612b348782880161252c565b9450506020612b458782880161252c565b9350506040612b5687828801612477565b925050606085013567ffffffffffffffff811115612b7757612b766122db565b5b612b8387828801612ade565b91505092959194509250565b60008060408385031215612ba657612ba56122d6565b5b6000612bb48582860161252c565b9250506020612bc58582860161252c565b9150509250929050565b7f4e487b7100000000000000000000000000000000000000000000000000000000600052602260045260246000fd5b60006002820490506001821680612c1657607f821691505b60208210811415612c2a57612c29612bcf565b5b50919050565b7f4552433732313a20617070726f76616c20746f2063757272656e74206f776e6560008201527f7200000000000000000000000000000000000000000000000000000000000000602082015250565b6000612c8c6021836123a6565b9150612c9782612c30565b604082019050919050565b60006020820190508181036000830152612cbb81612c7f565b9050919050565b7f4552433732313a20617070726f76652063616c6c6572206973206e6f7420746f60008201527f6b656e206f776e6572206f7220617070726f76656420666f7220616c6c000000602082015250565b6000612d1e603d836123a6565b9150612d2982612cc2565b604082019050919050565b60006020820190508181036000830152612d4d81612d11565b9050919050565b7f4552433732313a2063616c6c6572206973206e6f7420746f6b656e206f776e6560008201527f72206f7220617070726f76656400000000000000000000000000000000000000602082015250565b6000612db0602d836123a6565b9150612dbb82612d54565b604082019050919050565b60006020820190508181036000830152612ddf81612da3565b9050919050565b7f596f7520617265206e6f7420746865206f776e65720000000000000000000000600082015250565b6000612e1c6015836123a6565b9150612e2782612de6565b602082019050919050565b60006020820190508181036000830152612e4b81612e0f565b9050919050565b600081905092915050565b50565b6000612e6d600083612e52565b9150612e7882612e5d565b600082019050919050565b6000612e8e82612e60565b9150819050919050565b7f4e487b7100000000000000000000000000000000000000000000000000000000600052601160045260246000fd5b6000612ed282612456565b91507fffffffffffffffffffffffffffffffffffffffffffffffffffffffffffffffff821415612f0557612f04612e98565b5b600182019050919050565b7f4552433732313a20696e76616c696420746f6b656e2049440000000000000000600082015250565b6000612f466018836123a6565b9150612f5182612f10565b602082019050919050565b60006020820190508181036000830152612f7581612f39565b9050919050565b7f4552433732313a2061646472657373207a65726f206973206e6f74206120766160008201527f6c6964206f776e65720000000000000000000000000000000000000000000000602082015250565b6000612fd86029836123a6565b9150612fe382612f7c565b604082019050919050565b6000602082019050818103600083015261300781612fcb565b9050919050565b7f4f776e65722063616e6e6f74206275792074686520646f6d61696e0000000000600082015250565b6000613044601b836123a6565b915061304f8261300e565b602082019050919050565b6000602082019050818103600083015261307381613037565b9050919050565b7f596f752063616e6e6f74206166666f7264206974000000000000000000000000600082015250565b60006130b06014836123a6565b91506130bb8261307a565b602082019050919050565b600060208201905081810360008301526130df816130a3565b9050919050565b7f546865204e465420697320616c726561647920626f7567687400000000000000600082015250565b600061311c6019836123a6565b9150613127826130e6565b602082019050919050565b6000602082019050818103600083015261314b8161310f565b9050919050565b600061315d82612456565b915061316883612456565b9250827fffffffffffffffffffffffffffffffffffffffffffffffffffffffffffffffff0382111561319d5761319c612e98565b5b828201905092915050565b7f576520686176652072656163686564206d6178696d756d20737570706c790000600082015250565b60006131de601e836123a6565b91506131e9826131a8565b602082019050919050565b6000602082019050818103600083015261320d816131d1565b9050919050565b600081905092915050565b600061322a8261239b565b6132348185613214565b93506132448185602086016123b7565b80840191505092915050565b600061325c828561321f565b9150613268828461321f565b91508190509392505050565b7f4552433732313a207472616e736665722066726f6d20696e636f72726563742060008201527f6f776e6572000000000000000000000000000000000000000000000000000000602082015250565b60006132d06025836123a6565b91506132db82613274565b604082019050919050565b600060208201905081810360008301526132ff816132c3565b9050919050565b7f4552433732313a207472616e7366657220746f20746865207a65726f2061646460008201527f7265737300000000000000000000000000000000000000000000000000000000602082015250565b60006133626024836123a6565b915061336d82613306565b604082019050919050565b6000602082019050818103600083015261339181613355565b9050919050565b7f4552433732313a20617070726f766520746f2063616c6c657200000000000000600082015250565b60006133ce6019836123a6565b91506133d982613398565b602082019050919050565b600060208201905081810360008301526133fd816133c1565b9050919050565b7f4552433732313a207472616e7366657220746f206e6f6e20455243373231526560008201527f63656976657220696d706c656d656e7465720000000000000000000000000000602082015250565b60006134606032836123a6565b915061346b82613404565b604082019050919050565b6000602082019050818103600083015261348f81613453565b9050919050565b7f4e487b7100000000000000000000000000000000000000000000000000000000600052601260045260246000fd5b60006134d082612456565b91506134db83612456565b9250828210156134ee576134ed612e98565b5b828203905092915050565b600081519050919050565b600082825260208201905092915050565b6000613520826134f9565b61352a8185613504565b935061353a8185602086016123b7565b613543816123ea565b840191505092915050565b600060808201905061356360008301876124eb565b61357060208301866124eb565b61357d6040830185612950565b818103606083015261358f8184613515565b905095945050505050565b6000815190506135a98161230c565b92915050565b6000602082840312156135c5576135c46122d6565b5b60006135d38482850161359a565b91505092915050565b7f4552433732313a206d696e7420746f20746865207a65726f2061646472657373600082015250565b60006136126020836123a6565b915061361d826135dc565b602082019050919050565b6000602082019050818103600083015261364181613605565b9050919050565b7f4552433732313a20746f6b656e20616c7265616479206d696e74656400000000600082015250565b600061367e601c836123a6565b915061368982613648565b602082019050919050565b600060208201905081810360008301526136ad81613671565b905091905056fea2646970667358221220f771d660d8641adfe76f2cf5b61f8189944cf110fe67534b6c0f50f77f8ed14c64736f6c63430008090033",
  "linkReferences": {},
  "deployedLinkReferences": {}
}